{
  "contractName": "TodoList",
  "abi": [
    {
      "constant": true,
      "inputs": [
        {
          "name": "",
          "type": "uint256"
        }
      ],
      "name": "tasks",
      "outputs": [
        {
          "name": "id",
          "type": "uint256"
        },
        {
          "name": "content",
          "type": "string"
        },
        {
          "name": "completed",
          "type": "bool"
        }
      ],
      "payable": false,
      "stateMutability": "view",
      "type": "function",
      "signature": "0x8d977672"
    },
    {
      "constant": true,
      "inputs": [],
      "name": "taskCount",
      "outputs": [
        {
          "name": "",
          "type": "uint256"
        }
      ],
      "payable": false,
      "stateMutability": "view",
      "type": "function",
      "signature": "0xb6cb58a5"
    },
    {
      "inputs": [],
      "payable": false,
      "stateMutability": "nonpayable",
      "type": "constructor",
      "signature": "constructor"
    },
    {
      "anonymous": false,
      "inputs": [
        {
          "indexed": false,
          "name": "id",
          "type": "uint256"
        },
        {
          "indexed": false,
          "name": "content",
          "type": "string"
        },
        {
          "indexed": false,
          "name": "completed",
          "type": "bool"
        }
      ],
      "name": "TaskCreated",
      "type": "event",
      "signature": "0x05d0fb833127fc08168556d0e7ca9554fc3f6bc843b3b7d2bf1c35aea6bab660"
    },
    {
      "anonymous": false,
      "inputs": [
        {
          "indexed": false,
          "name": "id",
          "type": "uint256"
        },
        {
          "indexed": false,
          "name": "completed",
          "type": "bool"
        }
      ],
      "name": "TaskCompleted",
      "type": "event",
      "signature": "0xe21fa966ca5cd02748c0752352d18c48165e61cb55b4c29cccf924b5a95fcff1"
    },
    {
      "anonymous": false,
      "inputs": [
        {
          "indexed": false,
          "name": "id",
          "type": "uint256"
        },
        {
          "indexed": false,
          "name": "content",
          "type": "string"
        },
        {
          "indexed": false,
          "name": "completed",
          "type": "bool"
        }
      ],
      "name": "TaskRemoved",
      "type": "event",
      "signature": "0x30c40451ae191f97fa37780656d71db0d653321efdd8c733725a9ed19f508406"
    },
    {
      "constant": false,
      "inputs": [
        {
          "name": "_content",
          "type": "string"
        }
      ],
      "name": "createTask",
      "outputs": [],
      "payable": false,
      "stateMutability": "nonpayable",
      "type": "function",
      "signature": "0x111002aa"
    },
    {
      "constant": false,
      "inputs": [
        {
          "name": "_id",
          "type": "uint256"
        }
      ],
      "name": "toggleCompleted",
      "outputs": [],
      "payable": false,
      "stateMutability": "nonpayable",
      "type": "function",
      "signature": "0x455f5024"
    },
    {
      "constant": false,
      "inputs": [
        {
          "name": "_id",
          "type": "uint256"
        },
        {
          "name": "_content",
          "type": "string"
        }
      ],
      "name": "remove",
      "outputs": [],
      "payable": false,
      "stateMutability": "nonpayable",
      "type": "function",
      "signature": "0x9939b3a2"
    }
  ],
  "bytecode": "0x60806040526000805534801561001457600080fd5b5060408051808201909152601181527f436865636b206f757420546f6d4175746f000000000000000000000000000000602082015261005b90640100000000610060810204565b61021f565b60008054600190810180835560408051606081018252828152602080820187815282840187905293865284815291909420845181559151805192936100ad93908501929190910190610184565b5060408201518160020160006101000a81548160ff0219169083151502179055509050507f05d0fb833127fc08168556d0e7ca9554fc3f6bc843b3b7d2bf1c35aea6bab660600054826000604051808481526020018060200183151515158152602001828103825284818151815260200191508051906020019080838360005b8381101561014557818101518382015260200161012d565b50505050905090810190601f1680156101725780820380516001836020036101000a031916815260200191505b5094505050505060405180910390a150565b828054600181600116156101000203166002900490600052602060002090601f016020900481019282601f106101c557805160ff19168380011785556101f2565b828001600101855582156101f2579182015b828111156101f25782518255916020019190600101906101d7565b506101fe929150610202565b5090565b61021c91905b808211156101fe5760008155600101610208565b90565b6108ed8061022e6000396000f3fe60806040526004361061006c5763ffffffff7c0100000000000000000000000000000000000000000000000000000000600035041663111002aa8114610071578063455f5024146101265780638d977672146101505780639939b3a214610204578063b6cb58a5146102be575b600080fd5b34801561007d57600080fd5b506101246004803603602081101561009457600080fd5b8101906020810181356401000000008111156100af57600080fd5b8201836020820111156100c157600080fd5b803590602001918460018302840111640100000000831117156100e357600080fd5b91908080601f0160208091040260200160405190810160405280939291908181526020018383808284376000920191909152509295506102e5945050505050565b005b34801561013257600080fd5b506101246004803603602081101561014957600080fd5b5035610409565b34801561015c57600080fd5b5061017a6004803603602081101561017357600080fd5b5035610569565b604051808481526020018060200183151515158152602001828103825284818151815260200191508051906020019080838360005b838110156101c75781810151838201526020016101af565b50505050905090810190601f1680156101f45780820380516001836020036101000a031916815260200191505b5094505050505060405180910390f35b34801561021057600080fd5b506101246004803603604081101561022757600080fd5b8135919081019060408101602082013564010000000081111561024957600080fd5b82018360208201111561025b57600080fd5b8035906020019184600183028401116401000000008311171561027d57600080fd5b91908080601f016020809104026020016040519081016040528093929190818152602001838380828437600092019190915250929550610618945050505050565b3480156102ca57600080fd5b506102d36107fc565b60408051918252519081900360200190f35b600080546001908101808355604080516060810182528281526020808201878152828401879052938652848152919094208451815591518051929361033293908501929190910190610802565b5060408201518160020160006101000a81548160ff0219169083151502179055509050507f05d0fb833127fc08168556d0e7ca9554fc3f6bc843b3b7d2bf1c35aea6bab660600054826000604051808481526020018060200183151515158152602001828103825284818151815260200191508051906020019080838360005b838110156103ca5781810151838201526020016103b2565b50505050905090810190601f1680156103f75780820380516001836020036101000a031916815260200191505b5094505050505060405180910390a150565b610411610880565b60008281526001602081815260409283902083516060810185528154815281840180548651600296821615610100026000190190911695909504601f810185900485028601850190965285855290949193858401939092908301828280156104ba5780601f1061048f576101008083540402835291602001916104ba565b820191906000526020600020905b81548152906001019060200180831161049d57829003601f168201915b50505091835250506002919091015460ff1615156020918201526040808301805115905260008581526001808452919020835181558383015180519495508594919361050b93850192910190610802565b50604091820151600291909101805460ff1916911515919091179055818101518151848152901515602082015281517fe21fa966ca5cd02748c0752352d18c48165e61cb55b4c29cccf924b5a95fcff1929181900390910190a15050565b600160208181526000928352604092839020805481840180548651600296821615610100026000190190911695909504601f810185900485028601850190965285855290949193929091908301828280156106055780601f106105da57610100808354040283529160200191610605565b820191906000526020600020905b8154815290600101906020018083116105e857829003601f168201915b5050506002909301549192505060ff1683565b610620610880565b60008381526001602081815260409283902083516060810185528154815281840180548651600296821615610100026000190190911695909504601f810185900485028601850190965285855290949193858401939092908301828280156106c95780601f1061069e576101008083540402835291602001916106c9565b820191906000526020600020905b8154815290600101906020018083116106ac57829003601f168201915b50505091835250506002919091015460ff1615156020918201526000604080840182905283830186815287835260018085529190922084518155915180519495508594929361071e9392850192910190610802565b5060408201518160020160006101000a81548160ff0219169083151502179055509050507f30c40451ae191f97fa37780656d71db0d653321efdd8c733725a9ed19f5084068382602001518360400151604051808481526020018060200183151515158152602001828103825284818151815260200191508051906020019080838360005b838110156107bb5781810151838201526020016107a3565b50505050905090810190601f1680156107e85780820380516001836020036101000a031916815260200191505b5094505050505060405180910390a1505050565b60005481565b828054600181600116156101000203166002900490600052602060002090601f016020900481019282601f1061084357805160ff1916838001178555610870565b82800160010185558215610870579182015b82811115610870578251825591602001919060010190610855565b5061087c9291506108a4565b5090565b60606040519081016040528060008152602001606081526020016000151581525090565b6108be91905b8082111561087c57600081556001016108aa565b9056fea165627a7a7230582064461c030b652c95965d3bcc12bedb4c552ccf52d94df1e567df396d7de2a9570029",
  "source": "pragma solidity ^0.5.0;\r\n\r\ncontract TodoList{\r\n\tuint public taskCount = 0;\r\n\r\n\tstruct Task{\r\n\t\tuint id;\r\n\t\tstring content;\r\n\t\tbool completed;\r\n\t}\r\n\r\n\tmapping(uint => Task) public tasks;\r\n\r\n\tevent TaskCreated(\r\n\t\tuint id,\r\n\t\tstring content,\r\n\t\tbool completed\r\n\t);\r\n\r\n\tevent TaskCompleted(\r\n\t\tuint id,\r\n\t\tbool completed\r\n\t);\r\n\r\n\tevent TaskRemoved(\r\n\t\tuint id,\r\n\t\tstring content,\r\n\t\tbool completed\r\n\t);\r\n\r\n\tconstructor() public{\r\n\t\tcreateTask(\"Check out TomAuto\");\r\n\t}\r\n\r\n\tfunction createTask(string memory _content) public{\r\n\t\ttaskCount ++;\r\n\t\ttasks[taskCount] = Task(taskCount, _content, false);\r\n\t\temit TaskCreated(taskCount, _content, false);\r\n\t}\r\n\r\n\tfunction toggleCompleted(uint _id) public {\r\n\t\tTask memory _task = tasks[_id];\r\n\t\t_task.completed = !_task.completed;\r\n\t\ttasks[_id] = _task;\r\n\t\temit TaskCompleted(_id, _task.completed);\r\n\t}\r\n\r\n\tfunction remove(uint _id, string memory _content) public {\r\n\t\tTask memory _remove = tasks[_id];\r\n\t\t_remove.completed = false;\r\n\t\t_remove.content = _content;\r\n\t\ttasks[_id] = _remove;\r\n\t\temit TaskRemoved(_id, _remove.content, _remove.completed);\r\n\t}\r\n\r\n}",
  "sourcePath": "/mnt/c/Users/user/Desktop/Programavimas/Blockchain/VU-blochchain-4/smart-project/contracts/TodoList.sol",
  "compiler": {
    "name": "solc",
    "version": "0.5.0+commit.1d4f565a.Emscripten.clang"
  },
  "schemaVersion": "3.0.1",
  "updatedAt": "2019-12-18T19:19:05.529Z",
  "devdoc": {
    "methods": {}
  },
  "userdoc": {
    "methods": {}
  }
}